:020000040800F2
:100000000030002099140008B5130008B913000847
:10001000BD130008C1130008C5130008000000004C
:10002000000000000000000000000000C9130008EC
:10003000CD13000800000000D1130008D5130008FC
:10004000E9140008E9140008E9140008E91400089C
:10005000E9140008E9140008E9140008E91400088C
:10006000E9140008E9140008E9140008D91300088D
:10007000E5130008E9140008E9140008E914000871
:10008000E9140008E9140008E9140008E91400085C
:10009000E9140008E9140008E9140008E91400084C
:1000A000E9140008F1130008E9140008E914000835
:1000B000051400081D14000800000000E9140008E1
:1000C000E91400080000000000000000E914000826
:1000D00000000000E9140008E9140008E914000811
:1000E000E9140008E9140008000000000000000006
:1000F0000000000000000000000000000000000000
:1001000000000000000000000000000000000000EF
:100110000000000000000000E9140008E9140008D5
:1001200000000000000000000000000000000000CF
:1001300000000000000000000000000000000000BF
:10014000E9140008E914000800000000E9140008A0
:10015000E9140008E9140008E9140008E91400088B
:10016000E9140008E9140008000000000000000085
:10017000000000000000000000000000000000007F
:0801800000000000E914000872
:1001880010B5054C237833B9044B13B10448AFF3C9
:1001980000800123237010BD0C080020000000001F
:1001A800B824000808B5034B1BB103490348AFF353
:1001B800008008BD0000000010080020B8240008D6
:1001C80081F0004102E000BF83F0004330B54FEA00
:1001D80041044FEA430594EA050F08BF90EA020F6D
:1001E8001FBF54EA000C55EA020C7FEA645C7FEA00
:1001F800655C00F0E2804FEA5454D4EB5555B8BF23
:100208006D420CDD2C4480EA020281EA030382EA93
:10021800000083EA010180EA020281EA0303362D25
:1002280088BF30BD11F0004F4FEA01314FF4801CF8
:100238004CEA113102D0404261EB410113F0004F0A
:100248004FEA03334CEA133302D0524263EB4303C1
:1002580094EA050F00F0A780A4F10104D5F1200E5F
:100268000DDB02FA0EFC22FA05F2801841F10001BA
:1002780003FA0EF2801843FA05F359410EE0A5F18E
:1002880020050EF1200E012A03FA0EFC28BF4CF0BF
:10029800020C43FA05F3C01851EBE37101F0004575
:1002A80007D54FF0000EDCF1000C7EEB00006EEB82
:1002B8000101B1F5801F1BD3B1F5001F0CD349080C
:1002C8005FEA30004FEA3C0C04F101044FEA445263
:1002D80012F5800F80F09A80BCF1004F08BF5FEAEA
:1002E800500C50F1000041EB045141EA050130BDCA
:1002F8005FEA4C0C404141EB0101013C28BFB1F5DC
:10030800801FE9D291F0000F04BF01460020B1FA26
:1003180081F308BF2033A3F10B03B3F120020CDAF9
:100328000C3208DD02F1140CC2F10C0201FA0CF0D7
:1003380021FA02F10CE002F11402D8BFC2F1200C3C
:1003480001FA02F120FA0CFCDCBF41EA0C019040F2
:10035800E41AA2BF01EB0451294330BD6FEA04043B
:100368001F3C1CDA0C340EDC04F11404C4F1200226
:1003780020FA04F001FA02F340EA030021FA04F338
:1003880045EA030130BDC4F10C04C4F1200220FA8F
:1003980002F001FA04F340EA0300294630BD21FACD
:1003A80004F0294630BD94F0000F83F4801306BF93
:1003B80081F480110134013D4EE77FEA645C18BF87
:1003C8007FEA655C29D094EA050F08BF90EA020F1E
:1003D80005D054EA000C04BF1946104630BD91EA16
:1003E800030F1EBF0021002030BD5FEA545C05D119
:1003F8004000494128BF41F0004130BD14F5800458
:100408003CBF01F5801130BD01F0004545F0FE41CB
:1004180041F470014FF0000030BD7FEA645C1ABF00
:10042800194610467FEA655C1CBF0B46024650EA37
:10043800013406BF52EA033591EA030F41F4002163
:1004480030BD00BF90F0000F04BF0021704730B5E9
:100458004FF4806404F132044FF000054FF00001BE
:1004680050E700BF90F0000F04BF0021704730B57F
:100478004FF4806404F1320410F0004548BF404254
:100488004FF000013EE700BF42004FEAE2014FEAA9
:1004980031014FEA02701FBF12F07F4393F07F4F84
:1004A80081F06051704732F07F4208BF704793F087
:1004B8007F4F04BF41F40021704730B54FF460749A
:1004C80001F0004521F000411CE700BF50EA01029D
:1004D80008BF704730B54FF000050AE050EA010246
:1004E80008BF704730B511F0004502D5404261EBB6
:1004F80041014FF4806404F132045FEA915C3FF4F7
:10050800D8AE4FF003025FEADC0C18BF03325FEA93
:10051800DC0C18BF033202EBDC02C2F1200300FA44
:1005280003FC20FA02F001FA03FE40EA0E0021FA69
:1005380002F11444BDE600BF4FF0FF3C06E000BFE7
:100548004FF0010C02E000BF4FF0010C4DF804CD54
:100558004FEA410C7FEA6C5C4FEA430C18BF7FEA14
:100568006C5C1BD001B050EA410C0CBF52EA430C42
:1005780091EA030F02BF90EA020F0020704710F1C2
:10058800000F91EA030F58BF994208BF90422CBF51
:10059800D8176FEAE37040F0010070474FEA410C4A
:1005A8007FEA6C5C02D150EA013C07D14FEA430C68
:1005B8007FEA6C5CD6D152EA033CD3D05DF8040BD9
:1005C800704700BF8446104662468C46194663460B
:1005D80000E000BF01B5FFF7B7FF002848BF10F1E2
:1005E800000F01BD4DF808EDFFF7F4FF0CBF012027
:1005F80000205DF808FB00BF4DF808EDFFF7EAFFA3
:1006080034BF012000205DF808FB00BF4DF808ED5D
:10061800FFF7E0FF94BF012000205DF808FB00BF52
:100628004DF808EDFFF7CEFF94BF012000205DF8DC
:1006380008FB00BF4DF808EDFFF7C4FF34BF0120E9
:1006480000205DF808FB00BF002310B44FF07E5275
:10065800032400210260036243628362C36204715F
:1006680083605DF8044BC3608361C26180F8301019
:10067800704700BF0000000090ED007ADFED367A89
:1006880010B5B4EEE77AF1EE10FA44BF002380F813
:10069800303003790446DBB9D0ED007ADFED2F6AFC
:1006A8009FED2F7A77EEA67AC0ED007AD0ED087A22
:1006B800D0ED046A77EEA67AC0ED027AD0ED007A22
:1006C800F4EEC77AF1EE10FA01DD0223037110BDD2
:1006D8000379022B2ED0D4ED027AD4ED036A9FED74
:1006E8001F7A77EEA67A67EE877AC4ED067AA06954
:1006F800FFF7CAFE16A3D3E90023FFF79BFF08B153
:10070800184BA361D4ED067AF5EEC07A0023F1EE1A
:1007180010FA48BFA36194ED077A94ED006AD4ED0E
:10072800066AD4ED007A37EE467AE7EE267AC4ED0B
:10073800007A10BDD0ED0B7A90ED057A77EE877AC6
:100748000023C0ED027AC361C5E700BFAFF30080A4
:10075800AE47E17A14AEEF3F0AD7233CCDCCCC3D6F
:100768003333733FA4707D3F10B580214FF0904024
:1007780001F046FD084A09491478B0FA80F320438D
:100788005B0910F0FF000B7003D10549087781F869
:100798004800137010BD00BFAB0800208C08002073
:1007A8003C0800201A4A1B49538912889FED1A5A9F
:1007B80031F812C0DFED195A9FED196A03F2EF13F1
:1007C8009B1A1BB283F30A03164A31F81330D2ED91
:1007D800006A154907EE10CA07EE903AB8EEC77AD4
:1007E800F8EEE77A37EE667A77EE857AE7EE256AED
:1007F80010B427EE867A0D4C0D4BC460C1ED007A1B
:1008080003625DF8044BC2ED006A80ED0B7A704715
:10081800B4080020000000200000C8420AD7A33C0A
:10082800ACC5273790080020AC0800206F12033AA7
:100838000000E040F8B5954C954A6388D2ED007AFF
:100848009FED945ADFED945A21899FED946AC3F580
:10085800E07307EE103AB8EEC77AF0EE674AD7EEC3
:10086800054A06EE901AE4EEA57AF8EEE66AB0EECE
:10087800677AA6EE867AC2ED007AB5EEC07AF1EE16
:1008880010FA00F1F880864E86ED007A854AE388F2
:1008980012888549854D91ED000AD5ED006A9FEDD6
:1008A800846A8448844FC3F57F73A2F500620333DA
:1008B80007EE102A07EE903AB8EEC77AF8EEE77A14
:1008C80037EE407A77EEE67AA7EE060AE7EE866A12
:1008D80081ED000AC5ED006A00F03EF9774B784AD1
:1008E80093ED007AA38892ED006AD7ED005A95ED52
:1008F800005ADFED743A9FED744ADFED674AB4F8A9
:100908000AC0724CDFED726ADFED727A7249734881
:10091800B5EE003A27EE037AB0EE463A27EE000A23
:1009280007EE103AB8EEC77A35EE655A97EE233AD5
:100938006B4B35EE005AA3EE246ABCF57A7FE5EEE0
:10094800045AB0EE467ABCEEE56A83ED000A16EE6C
:10095800103AC3F3090367EE266A34F8133082EDC0
:10096800007A06EE103AB8EE466AC7ED005A66EE0F
:10097800866A26EE277A66EEA77ABCEEC77AFCEE80
:10098800E77A17EE105A17EE904AC0ED037AD1EDC8
:10099800057A81ED037AB8EEE77AD0ED057A81ED34
:1009A800026A96ED006A0F690669C0ED026AF8EE00
:1009B800E77A27EE067A67EE867ABDEEC77AFDEE0D
:1009C800E77A88BF4FF07E5317EE102A88BF8B61F5
:1009D8003D4417EE903A344402EB9552414ED1ED26
:1009E800065AD1ED066A91ED065A046103EB945359
:1009F800C2F30902C3F3090336F8122036F813309C
:100A0800394E0D61A2F5004207EE102AA3F5004306
:100A180007EE903AB8EEC77AF8EEE77A66EE856A9E
:100A280027EE257A67EEA67ABDEEC77AFDEEE77A5D
:100A380017EE102A17EE903A5411DD10B4F5006F36
:100A480081ED007A3460C0ED007A4D6109DB274BF7
:100A580040F2FF721A6040F6FF70BDE8F84000F0FF
:100A680059B8234B9C420ADA204A01201360BDE89A
:100A7800F84000F04FB80A4E0021316006E71B4BE2
:100A880004F500601C6080B2E7E700BFB4080020EE
:100A9800340800200000003B0AD7233C0AD7233A39
:100AA800380800205C0B0020040B0020940800206C
:100AB800CDCC4C3DDC0A0020A0080020A408002072
:100AC800C00800200210003A0AD7A33D0000002009
:100AD80000000042ACC527473C0800200C0B002052
:100AE8002C080020D0240008000B002098080020C3
:100AF80001F8FFFF4FF4702393FAA3F304498B68BE
:100B080023F47F6323F00F0318438860704700BF06
:100B1800009800404FF4702393FAA3F304498B68BC
:100B280023F47F6323F00F0318438860704700BFE6
:100B380000740040F1EE007A60EEA70A0023054A2F
:100B48000260C0ED010A8360C36003614361836191
:100B5800C361704776E96E3790ED027AD0ED037A7B
:100B680090ED015AD0ED006A80ED047A37EEC76A3D
:100B7800F7EE005AF0EEC64AE4EE856A30EE470A10
:100B8800F4EEE56AF1EE10FA88BFF0EE656AA0EEC1
:100B9800267AC0ED057A77EE675A80ED066AE5EEAB
:100BA800A67A80ED027AB0EE670AC0ED037A704744
:100BB80038B540F2FF70FFF79DFF1149114B0A88C5
:100BC80011481C8885899FED117A114840F6E44345
:100BD80003FB02F2B2FBF5F295B207EE905AF8EE7B
:100BE800E77A02800B4D0C480C4A0988296067EEA9
:100BF800877A03FB04F31B130380C2ED007A38BD28
:100C0800BAF7FF1F5C0B0020C40800200AE09E39D9
:100C18008E080020FC0A002030080020A4080020CC
:100C280029492A4B0A6822F0070242F0020210B54D
:100C38000A600A681A6842F001021A601A68920784
:100C4800FCD51968214A21F0F80141F080011960AA
:100C5800596821F4741141F460115960D96A21F07E
:100C68000F01D962196841F08071196013689B01FE
:100C7800FCD55368154C23F0F0035360536823F4F4
:100C8800E06343F480635360536823F46053536014
:100C9800536823F0030343F002035360636803F0CF
:100CA8000C03082BFAD10A4801F0D8FB002000F009
:100CB80019FC236B23F480732363E36A23F4F8732A
:100CC80043F48073E36210BD00200240001002402C
:100CD8000090D0032DE98048002495B000F026FC50
:100CE800FFF79EFFCDE91244CDE91044C94DCA4E25
:100CF8006A69DFF83CB3DFF83CA342F400326A616A
:100D08006A6902F400320892089A6A6942F48022F9
:100D18006A616A6902F48022012709920EA94FF0DC
:100D280080084FF000094FF09040CDE90E89099AEC
:100D3800129701F09BFA6A693A436A616A693A4014
:100D48000792214622460B20DDF81CC001F05AF814
:100D58000B2001F08FF8224621460C2001F052F8B2
:100D68000C2001F087F84FF480624FF480704FF048
:100D7800070C4FF0A0413483F262B062082230467B
:100D8800C6F81CC07261C6E90347C6E9014486F883
:100D9800204086F8307074633160CDE90E44CDE9A7
:100DA8001044CDE91244CDE90B440A944FF00108F0
:100DB80000F080FC4FF001090AA930460A9400F0BF
:100DC8009BFFCDE90E894FF007084FF00009CDE9E8
:100DD80010890EA930464FF000084FF00009CDE900
:100DE800128900F0F1FD4FF002080EA930464FF0CD
:100DF8000209CDE90E8900F0E7FD4FF003080EA9BE
:100E080030464FF00309CDE90E8900F0DDFD4FF0C3
:100E180004080EA930464FF00409CDE90E8900F008
:100E2800D3FD4FF00B080EA930464FF00509CDE968
:100E38000E8900F0C9FD4FF00C080EA930464FF09E
:100E48000609CDE90E89072700F0BEFD0EA9304638
:100E58001226CDE90E6700F0B7FDCDE91244CDE9C1
:100E68000A44CDE90C44CDE91044EA6942F0005245
:100E7800EA61EA6902F000520592059A6A6942F449
:100E880000326A616A69129402F4003206920EA96D
:100E9800102603274FF09040CDE90E67069A5F4F62
:100EA80001F0E4F95E4B5F490D944FF038084FF0BC
:100EB80000090AAA1846CDE90A8901F0A7F95A4992
:100EC800574B0A6822F400320A601A6822F00402BA
:100ED8001A601A6842F001021A60CDE91244CDE99D
:100EE8000A44CDE90C44CDE91044EB6943F0806332
:100EF800EB61EB6903F080630393039B6B6943F435
:100F080000336B616B69129403F400330493049803
:100F18000EA9402203234FF09040CDE90E2301F0A3
:100F2800A5F90AAA02233F490D935846CDE90A8933
:100F380001F06CF9DBF80030DFF8FC8023F00403E3
:100F4800CBF80030DBF8003043F00103CBF8003079
:100F5800CDE90E44CDE910441294EB6943F0010346
:100F6800EB61EB6903F001030A934FF080560A9B8B
:100F7800DAF80C3087F81C434FF4C8633E600EA9BA
:100F88004FF08040CDE91034ADF838400F9401F0AF
:100F98001DFA4FF080431A6842F080021A609A687E
:100FA80002EA08029A605A6822F0700242F02002AF
:100FB8005A609A6822F080029A60DA6842F0010268
:100FC800DA601A6842F001021A60C7F88060BFF35D
:100FD8004F8FBFF36F8FDAF80C3087F81C433E60F1
:100FE800CDE90E44CDE910441294EB690F4E43F05D
:100FF8000203EB61EB6903F0020302934FF0005523
:10100800029BDAF80C3087F81D434FF448533D60D3
:101018000EA913E000100240B00B002000E100E030
:10102800007400400100100250000140000400401C
:101038000098004000ED00E0F8BFFEFF3046CDE923
:101048001034ADF838400F9401F0C0F9336843F01C
:1010580080033360B36803EA0803B360736823F05E
:10106800700343F020037360B36823F08003B36018
:10107800C7F88050BFF34F8FBFF36F8FDAF80C209B
:10108800DFF8B0915F4F604E604DC2F30222C2F1AB
:101098000703111D042B28BF0423062988BFD41E6B
:1010A8004FF0FF3202FA03F3DB43A24003F00203DE
:1010B800D243A34002F0020213431B01DBB24FF0FC
:1010C800005189F81D33C9F80010FB68504A43F0F5
:1010D8000103FB603B684FF4806443F001033B600D
:1010E800F46200244FF001084FF4107104233046D5
:1010F8003483B16232607361CDE90E44CDE91044A6
:10110800CDE91244C6E90144C6E9034486F8204003
:101118007463C6F81C8086F8308000F0CBFA02228F
:101128000123CDE90E2307220023CDE910230EA9C0
:10113800002200233046CDE9122300F045FCCDE91A
:101148000E44CDE91044334B12949A69324842F464
:1011580000629A619B6903F4006301934FF0007386
:10116800019AC26889F819430EA9C9F800302846BF
:101178004FF496531093ADF838400F9411948DF8AE
:10118800484001F023F92B682449254823F08003BF
:101198002B60AB6823F4A03323F00703AB606B68C4
:1011A80023F0700343F020036B606B6823F4700333
:1011B8006B60AB6823F08003AB60EB6843EA08031D
:1011C800EB602B6843EA08032B60072200F078FBEA
:1011D80014494246304600F073FB3B6812489FEDC5
:1011E800130A43EA08033B602B6843EA08032B60B1
:1011F800F6EE000AFFF79EFC0D48FFF725FAFFF709
:10120800D7FCFCE700040040600B0020002C0140E4
:10121800000100500010024000ED00E0C40800206A
:10122800B00B00205C0B0020DC0A0020CDCC4C3D2C
:101238005408002000E100E0704700BF0A4B9A699B
:1012480042F001029A619A6982B002F001020092AA
:10125800009ADA6942F08052DA61DB6903F0805360
:101268000193019B02B070470010024070B50268FC
:101278008CB00023B2F1A04FCDE90633CDE9083395
:1012880004460A9338D0414B9A4201D00CB070BD45
:101298003F4A13680133012B136068D03D4B3E4D24
:1012A8005A6942F400325A615B6903F400330593CA
:1012B80005980323202206A900264FF09040CDE987
:1012C8000623089600F0BCFE344B2B6080204FF4B8
:1012D80080714FF480622023E860C5E904126E60D3
:1012E800AE60EE612846AB6100F0ECFD002849D104
:1012F800A5636C620CB070BD254A13680133012BDD
:10130800136029D0234B264D5A6942F400325A61A2
:101318005A6902F400320292029A5A6942F480220F
:101328005A615B6903F4802303930F220323039913
:10133800002606A94FF09040CDE90623089600F054
:101348007FFE032303221748089606A9CDE9062342
:1013580000F076FE144BB8E70E4B5A6942F0805203
:101368005A615B6903F080530193019BCAE7094BFB
:101378005A6942F080525A615B6903F080530493C2
:10138800049B8BE7FFF758FFB2E700BF000100504E
:101398002808002000100240440C00201C000240D5
:1013A800000C00200004004808000240704700BFFD
:1013B800FEE700BFFEE700BFFEE700BFFEE700BF95
:1013C800704700BF704700BF704700BF00F0C0B84B
:1013D800014800F0EBBD00BF000C0020014800F000
:1013E800E5BD00BF440C0020034B1A69D20744BF77
:1013F8006FF001021A617047002C01404FF08043E2
:101408001A69D20700D470476FF001021A61FFF71A
:1014180011BA00BF134B1A69D20721D5124A70B509
:10142800508816889588D4886FF0010119610F4B90
:10143800118952898008890892085880B608AD0831
:10144800A4080B481E809D80DC8019815A81FFF713
:1014580013F9FFF789F9BDE870400548FFF7A2B90D
:10146800704700BF00040040C4080020B4080020F2
:1014780054080020054BD3F888204FF0006142F44F
:101488007002C3F888209960704700BF00ED00E043
:10149800DFF834D0002103E00C4B5B584350043193
:1014A8000B480C4B42189A42F6D30B4A02E0002331
:1014B80042F8043B094B9A42F9D3FFF7DBFF00F0EF
:1014C800D3FFFFF707FCFEE700300020D82C000808
:1014D800000000200C0800200C0800208C0C0020C4
:1014E800FEE7000038B50E4A0E4B12781B68054619
:1014F8004FF47A70B0FBF2F0B3FBF0F000F0C8FCE8
:1015080008B90F2D01D9012038BD044602462946E5
:101518004FF0FF3000F076FC034B20461D6038BDCD
:10152800040800200008002008080020074A08B521
:10153800136843F010031360032000F04FFC0020F1
:10154800FFF7D0FFFFF77AFE002008BD0020024019
:10155800034A044B11681B780B441360704700BFA3
:10156800880C002004080020014B1868704700BF51
:10157800880C0020704700BF704700BF704700BF4D
:10158800406A036C43F040030364436C43F0040374
:101598004364FFF7F3BF00BF406AFFF7EDBF00BF2A
:1015A800436A1A6C12F0500F18D11A6C196842F479
:1015B80000721A64CA6812F4406F0CD15A7E52B98C
:1015C8001A6C22F480721A641A6CD20403D41A6C4E
:1015D80042F001021A641846FFF7CCBF9B6B1B6BE5
:1015E800184700BF026838B5936803F00303012B5E
:1015F80001D0002038BD1168C907FAD5916801F0FB
:101608000D010129044609D0026C42F0100202645F
:10161800426C42F001021846626438BD93680321A7
:1016280043F0020393601160FFF79EFF05462368AD
:101638009B68DB07DDD5FFF797FF401B0228F6D92B
:10164800236C43F010032364636C43F00103636469
:10165800012038BD026838B5936803F00303012BF5
:10166800044620D09168124B194209D0236C43F0EC
:1016780010032364636C43F001036364012038BDE5
:10168800936843F001039360FFF76EFF054604E09B
:10169800FFF76AFF431B022BE8D823681B68DB07A8
:1016A800F6D5002038BD1368D907DBD50020F9E747
:1016B8003F00008070B582B000230193002800F03D
:1016C8008F80036C13F01003044617D1056C002DAE
:1016D80000F0898022689168CE0075D591688D00E8
:1016E80072D4216CC80600D463B1236C23F01203B2
:1016F80043F010030120236402B070BD036CD806C8
:10170800F3D42268906810F00400EED1216C674B86
:1017180021F4817141F0020121649168B2F1A04F76
:1017280001F0030118BF4FF0A043012900F0A98080
:10173800996801F00301012900F0A8805C496568F7
:101748008B6823F440332B438B60D4E90231666BFA
:10175800657E0B4394F82010012E18BF4FF480507B
:1017680043EA4533012943EA000300F08280A16A75
:10177800012902D0E06A01430B43916811F00C0F74
:101788000CD1D16821F4804121F00201D16094F894
:101798003010207E490041EA80310B43D568454925
:1017A800206929400B430128D3605AD0136B23F0DA
:1017B8000F03136300206064236C23F0030343F0DA
:1017C8000103236402B070BD236C23F0120343F0BD
:1017D80010032364636C43F001036364236C84E7A0
:1017E800012002B070BDC0E91255456480F83C5034
:1017F800FFF73CFD22689368D90001D52B466AE7BC
:101808002046FFF7EFFE226CD20603463FF562AF93
:1018180000287FF45FAF206C22682749274D0968AC
:1018280020F4885020F0020040F002002064906804
:1018380020F040509060A5FB0101890C906801EBF5
:101848008101490040F08050906001910199002980
:101858003FF441AF01990139019101990029F9D16A
:1018680039E7116BE36921F00F01013B0B43136367
:10187800A0E785B9616A013943EA414343F48033FB
:1018880075E71168C9073FF560AF51E71B68DB07CB
:101898003FF55BAF52E7216C21F0220141F02001B6
:1018A8002164616C41F00101616460E7000100504E
:1018B8000003005007C0F0FF0008002083DE1B4330
:1018C80003682DE9F0479D6815F0040513D190F8D9
:1018D8003C30012B04460ED0DFF8E8A0012780F841
:1018E8003C70DAF8086016F01F0608D080F83C5003
:1018F8003846BDE8F08702273846BDE8F0878846B5
:101908009146FFF7A7FE0746002850D1236C2168AF
:1019180023F4706323F0010343F480732364DAF83B
:101928000830D8063BD0B1F1A04F38D0236C214AFB
:1019380043F48013914223640AD14FF0A043DB683B
:101948009B0105D5236C23F4405343F4805323644F
:10195800236CA06B184A13F480531CBF636C23F0EC
:10196800060363640026154B84F83C608262C362F8
:10197800134A02631C230B604B6843F010034B604F
:10198800CE6846F001064B464246CE60403100F034
:10199800CBFA2268936843F004039360A8E7236CAA
:1019A80023F480132364CB689A01D1D5CAE784F85D
:1019B8003C609DE700010050A9150008A11500082A
:1019C8008915000800030050F0B490F83C20CC685A
:1019D80082B00346012A4FF00000019000F0C38056
:1019E8001A68012083F83C0095686D0736D448686A
:1019F80004287DD800EB4000166B0D6840001F27B7
:101A0800874026EA070605FA00F03043106390681D
:101A180010F00C0F35D1092D40F2938005EB4507E6
:101A280090698E681E3F4FF0070C0CFA07FC20EAFD
:101A38000C00BE4030439061D1E90467D068C0F320
:101A4800C1004000013E07FA00F0032E00F21D819C
:101A5800DFE816F00E00E400DA00D0001A6C42F05D
:101A680020021A64002283F83C2002B0F0BC7047C0
:101A7800176E9C4E3E4046EA8566304340F0004073
:101A88001066906800F00300012868D0012C6ED021
:101A9800D2F8B0100120A84021EA0001C2F8B01025
:101AA800102D39D0112D79D18F498968CE0137D4BD
:101AB80090688E49B2F1A04F00F0030018BF4FF0B4
:101AC800A041012800F08C80886800F003000128FC
:101AD80000F0D780102D00F0B680112D00F0A880FE
:101AE800122D1DD180498A6842F480028A6017E06D
:101AF800092817D90E2800EB40004FEA400063D8A8
:101B0800966B0D683C381F27874026EA070605FABA
:101B180000F0304390637AE7734989680F02C7D5AC
:101B280000209FE700EB40004000566B0D681E3810
:101B38001F27874026EA070605FA00F0304350635E
:101B480065E750698E6805EB450C072707FA0CF71F
:101B580020EA070006FA0CF6304350616CE710687B
:101B6800C00793D5DCE7022002B0F0BC7047D2F87A
:101B7800B000AC400443092DC2F8B04015D905EBBC
:101B880045008E689469A0F11B0107278F4006FA6B
:101B980001F024EA07010143916181E7122DBFD1C9
:101BA800514989684C02BBD482E70135886851697C
:101BB80005EB45050724AC4021EA040100FA05F5C8
:101BC8002943516100204DE7D66B0D685A381F270D
:101BD800874026EA070605FA00F03043D06316E787
:101BE8001068C0077FF570AF1A6C42F020021A64C3
:101BF800012037E7D76E3B4E3E4046EA85663043C4
:101C080040F00040D0663CE7976E364E3E4046EACC
:101C18008566304340F00040906632E7576E314E9B
:101C28003E4046EA8566304340F00040506628E76B
:101C3800B2F1A04F7FF474AF2B498A6842F08072EA
:101C48008A6000200EE7B2F1A04F7FF469AF264901
:101C5800274C8A68274842F400028A602268A0FB61
:101C68000212920C02EB820252000192019A002A9F
:101C78003FF456AF019A013A0192019A002AF9D12C
:101C88004EE70968C907AFD424E7106E00F0F840A2
:101C9800B0EB856F4FEA856614D0506E00F0F840BF
:101CA800864214D0906E00F0F840864214D0D06E70
:101CB80000F0F84086427FF4E4AED06E20F0004099
:101CC800D066DEE6106E20F000401066E5E7506E44
:101CD80020F000405066E5E7906E20F000409066E6
:101CE800E5E700BF00F0FF8300030050000100504B
:101CF8000008002083DE1B43F0B4034635481C6807
:101D080093F83C20B4F1A04F18BF4FF0A040012A2F
:101D180035D001220D6883F83C20A268570709D501
:101D28001A6C42F020021A640120002283F83C2039
:101D3800F0BC704782685607F2D41DB3264F4E6830
:101D4800BA6893F830C022F46042324342EA4C3217
:101D5800BA60A26802F00302012A37D0826802F052
:101D68000302012A2AD01C488968826822F4716219
:101D78000D4322F00F02154385600020D5E70220AD
:101D8800F0BC704714498A6822F460428A60A268ED
:101D980002F00302012A15D0826802F00302012A28
:101DA80008D00D498A6822F4716222F00F028A6015
:101DB8000020BAE70268D207DFD4F2E70268D0074A
:101DC800DBD4D0E72268D107D7D4E5E72268D40767
:101DD800C4D5D2E700010050000300500849CA6882
:101DE80010B400024FF6FF04224000F4E0631343EE
:101DF80043F0BF6343F400335DF8044BCB60704796
:101E080000ED00E0194BDB68C3F3022330B4C3F1E3
:101E18000705042D03F1040428BF0425062C19D94D
:101E2800033B4FF0FF349C4022EA04024FF0FF349A
:101E3800AC4021EA04019940002841EA02010CDB88
:101E480000F1604000F561400901C9B280F8001353
:101E580030BC704700221346E8E7054B00F00F003E
:101E680009010344C9B2197630BC704700ED00E09F
:101E7800FCEC00E0002807DB00F01F01034A4009E2
:101E880001238B4042F82030704700BF00E100E09A
:101E98000138B0F1807F0ED2084B10B4084C58605E
:101EA800F02084F823000022072110469A605DF88C
:101EB800044B196070470120704700BF10E000E034
:101EC80000ED00E038B370B4D0E90125D0E903147F
:101ED80003462A4300685E699D690A4322433243E8
:101EE80004680E490E4E2A43DD6924F47F540144E8
:101EF8002A4324F030042243A6FB01610260094C06
:101F080009094FF48072002089001A84C3E90F413F
:101F180070BC986370470120704700BFF8FFFDBF91
:101F2800CDCCCCCC00000240F0B490F82040012C7D
:101F380039D090F821500124A54280F8204005D0DE
:101F4800002380F82030F0BC022070470468022784
:101F5800002680F8217086632668C76B26F0010C7E
:101F6800066CC4F800C0B54046687D606360C36A0B
:101F7800102E0BBFA260A160E160E26053B123683C
:101F880043F00E032360236843F00103236000201D
:101F9800F0BC7047236843F00A032360236823F0EA
:101FA80004032360EFE70220F0BC704770B4D0E967
:101FB8000F6204233168046893400B4225680ED0F1
:101FC80015F0040F0BD02268920603D4226822F081
:101FD80004022260C26A7360CAB170BC104702234F
:101FE80093400B4215D015F0020F12D022689206CA
:101FF80006D42268012122F00A02226080F821100A
:10200800826A7360002380F82030002AE5D170BC12
:102018007047082393400B42F9D02B07F7D5236864
:10202800016B23F00E032360012303FA02F24FF43D
:1020380080747260836304840029E8D070BC084708
:102048002DE9F04F0D6883B0002D00F0C280DFF855
:10205800ACC100234FF0010876E0D0F800B04FEA99
:102068004309032606FA09F602F003072BEA060BD2
:1020780007FA09F70AF1FF3A47EA0B07BAF1010F25
:102088006FEA0606076040F29180C7688C683E4098
:1020980004FA09F43443C460D40051D5534EB469EA
:1020A80044F00104B461B46923F0030606F18046E4
:1020B80004F0010406F58036019403F003044FEAA6
:1020C800840A019FB7680F2404FA0AF9B0F1904F07
:1020D80027EA09070DD0464CA0427DD0454CA042C6
:1020E8007ED0454CA0420CBF0324052404FA0AF410
:1020F8002743B760DCF800406FEA0E06D70354BFE9
:1021080034404EEA0404CCF80040DCF8044097035D
:1021180054BF34404EEA0404CCF80440DCF80840CC
:10212800D70254BF34404EEA0404CCF80840DCF827
:102138000C40920254BF34404EEA0404CCF80C40E0
:10214800013335FA03F244D008FA03F414EA050E11
:10215800F6D04A6822F0100ABAF1020F7FF47DAF78
:102168004FEAD30900EB890903F00707D9F8206083
:10217800BF004FF00F0A0AFA07FB26EA0B0A0E699E
:10218800BE4046EA0A06C9F82060D0F800A04FEA27
:102198004309032606FA09F602F003072AEA060AA3
:1021A80007FA09F747EA0A07F6430760876807EA64
:1021B800060ACF6807FA09F747EA0A078760D0F8DE
:1021C80004A0C2F300172AEA04049F40274347608B
:1021D8005BE703B0BDE8F08F08FA0AF4274388E705
:1021E8004FF0020909FA0AF4274382E70010024077
:1021F8000004004800080048000C004800040140A2
:102208000369194214BF01200020704770B401F01F
:10221800100105680123044603FA01F0A84322D0FF
:10222800D2E900036BB9D26825680243FA208840D6
:1022380002FA01F125EA000211431846216070BC38
:102248007047D2E9026503432268334340F6FA70C7
:102258002B43884003FA01F122EA00031943216065
:10226800002070BC7047184670BC70472DE9F047D5
:102278000C6894FAA4F2B2FA82F234FA02F300F08B
:10228800A0804F684FF0010C07F1FF3E03264FF086
:102298000F0803E0013234FA02F36ED00CFA02F3AD
:1022A8002340F7D0D0F8009093FAA3FABAFA8AFA42
:1022B80093FAA3F5B5FA85F54FEA4A0A6D0006FACE
:1022C8000AFA07FA05F529EA0A0949EA0505BEF1F5
:1022D800010F056016D8856893FAA3F9B9FA89F948
:1022E80093FAA3FA4FEA490906FA09F925EA09090E
:1022F800BAFA8AFA8D684FEA4A0A05FA0AF549EAEB
:1023080005058560C56893FAA3F9B9FA89F993FABE
:10231800A3FA4FEA490906FA09F925EA0909BAFAB6
:102328008AFA0D694FEA4A0A05FA0AF549EA0505E3
:10233800022FC560AED193FAA3F9B9FA89F9B9F1B8
:10234800070F4FEA132526DC056A93FAA3FABAFAAF
:102358008AFA93FAA3F34FEA8A0A08FA0AFA25EAEC
:102368000A09B3FA83F34D699B009D40013249EA9B
:10237800050534FA02F3056290D1BEF1010F07D8C2
:10238800CA68436802FB04F223EA04041443446065
:102398000020BDE8F087436A95FAA5FABAFA8AFAE6
:1023A80095FAA5F54FEA8A0A08FA0AFA23EA0A0909
:1023B800B5FA85F54B69AD00AB4049EA03034362C2
:1023C80068E74B6803F1FF3ED7E700BF224A03687E
:1023D800904230B438D0B0F1804F15D0A2F5943285
:1023E800904211D002F59E32904221D002F58062CF
:1023F80090421DD002F58062904219D08C680A88FC
:102408000360C46282620CE04A68D1E9024523F0A5
:102418007003134323F440730A882B430360C46298
:102428008262436943F00103436130BC0020704776
:10243800CC680A8823F44073234303608B68C36223
:1024480082620B7C0363ECE74D68CC680A8823F052
:1024580070032B43EEE700BF002C0140014B1860CE
:10246800704700BF0008002070B50D4D0D4C641B6F
:10247800A4100026A64209D10B4D0C4C00F018F808
:10248800641BA4100026A64205D170BD55F8043B74
:1024980098470136EEE755F8043B98470136F2E7CE
:1024A800D02C0008D02C0008D02C0008D42C000810
:1024B800F8B500BFF8BC08BC9E467047F8B500BF29
:0824C800F8BC08BC9E467047F9
:1024D0000080C98092815B822483ED83B6847E85EF
:1024E00047861087D987A1886A89328AFB8AC38B7D
:1024F0008B8C538D1B8EE38EAB8F72903991019232
:10250000C7928E9355941B95E195A7966D97339836
:10251000F898BD99829A479B0B9CCF9C939D569EA1
:10252000199FDC9F9FA061A123A2E5A2A6A367A497
:1025300027A5E8A5A7A667A726A8E5A8A3A961AA35
:102540001FABDCAB98AC55AD10AECCAE87AF41B095
:10255000FBB0B5B16EB226B3DEB396B44DB503B6DB
:10256000B9B66FB724B8D8B88CB93FBAF2BAA4BB21
:1025700056BC07BDB7BD67BE17BFC5BF73C021C17D
:10258000CDC179C225C3D0C37AC424C5CCC575C614
:102590001CC7C3C769C80FC9B3C957CAFBCA9DCBFB
:1025A0003FCCE0CC81CD20CEBFCE5DCFFBCF97D04E
:1025B00033D1CED168D202D39AD332D4C9D45FD525
:1025C000F5D589D61DD7B0D742D8D3D864D9F3D999
:1025D00082DA0FDB9CDB28DCB3DC3DDDC7DD4FDEC0
:1025E000D7DE5DDFE3DF68E0EBE06EE1F0E171E2B2
:1025F000F1E270E3EEE36BE4E8E463E5DDE556E683
:10260000CFE646E7BCE731E8A6E819E98BE9FCE943
:102610006DEADCEA4AEBB7EB23EC8EECF8EC61ED0B
:10262000C9ED30EE96EEFAEE5EEFC1EF22F083F0E8
:10263000E2F040F19DF1F9F154F2AEF207F35EF3EE
:10264000B5F30AF45FF4B2F404F555F5A5F5F3F526
:1026500041F68DF6D8F622F76BF7B3F7FAF73FF8A5
:1026600084F8C7F809F94AF989F9C8F905FA41FA6D
:102670007CFAB6FAEEFA26FB5CFB91FBC5FBF8FB95
:1026800029FC59FC88FCB6FCE3FC0EFD39FD62FD1B
:1026900089FDB0FDD5FDFAFD1DFE3EFE5FFE7EFE0E
:1026A0009CFEB9FED5FEEFFE09FF21FF37FF4DFF6F
:1026B00061FF74FF86FF97FFA6FFB4FFC1FFCDFF48
:1026C000D8FFE1FFE9FFF0FFF5FFF9FFFDFFFEFF97
:1026D000FFFFFEFFFDFFF9FFF5FFF0FFE9FFE1FF60
:1026E000D8FFCDFFC1FFB4FFA6FF97FF86FF74FFA1
:1026F00061FF4DFF37FF21FF09FFEFFED5FEB9FE59
:102700009CFE7EFE5FFE3EFE1DFEFAFDD5FDB0FD89
:1027100089FD62FD39FD0EFDE3FCB6FC88FC59FC29
:1027200029FCF8FBC5FB91FB5CFB26FBEEFAB6FA35
:102730007CFA41FA05FAC8F989F94AF909F9C7F8A2
:1027400084F83FF8FAF7B3F76BF722F7D8F68DF66F
:1027500041F6F3F5A5F555F504F5B2F45FF40AF486
:10276000B5F35EF307F3AEF254F2F9F19DF140F1E7
:10277000E2F083F022F0C1EF5EEFFAEE96EE30EE7B
:10278000C9ED61EDF8EC8EEC23ECB7EB4AEBDCEA3B
:102790006DEAFCE98BE919E9A6E831E8BCE746E710
:1027A000CFE656E6DDE563E5E8E46BE4EEE370E3EF
:1027B000F1E271E2F0E16EE1EBE068E0E3DF5DDFC2
:1027C000D7DE4FDEC7DD3DDDB3DC28DC9CDB0FDB75
:1027D00082DAF3D964D9D3D842D8B0D71DD789D6F5
:1027E000F5D55FD5C9D432D49AD302D368D2CED12D
:1027F00033D197D0FBCF5DCFBFCE20CE81CDE0CC03
:102800003FCC9DCBFBCA57CAB3C90FC969C8C3C760
:102810001CC775C6CCC524C57AC4D0C325C379C22C
:10282000CDC121C173C0C5BF17BF67BEB7BD07BD4E
:1028300056BCA4BBF2BA3FBA8CB9D8B824B86FB7AB
:10284000B9B603B64DB596B4DEB326B36EB2B5B124
:10285000FBB041B087AFCCAE10AE55AD98ACDCABA1
:102860001FAB61AAA3A9E5A826A867A7A7A6E8A504
:1028700027A567A4A6A3E5A223A261A19FA0DC9F30
:10288000199F569E939DCF9C0B9C479B829ABD9906
:10289000F89833986D97A796E1951B9555948E936C
:1028A000C792019239917290AB8FE38E1B8E538D3C
:1028B0008B8CC38BFB8A328A6A89A188D98710875F
:1028C00047867E85B684ED8324835B829281C980AE
:1028D0000080367F6D7EA47DDB7C127C497B817A13
:1028E000B879EF7826785E779576CD7504753C7467
:1028F0007473AC72E4711C7154708D6FC66EFE6D92
:10290000386D716CAA6BE46A1E6A58699268CC676C
:10291000076742667D65B864F46330636C62A961E1
:10292000E6602360605F9E5EDC5D1A5D595C985BCB
:10293000D85A175A58599858D9571A575C569E550D
:10294000E05423546753AA52EF5133517850BE4F8D
:10295000044F4A4E914DD94C214C694BB24AFC4927
:1029600046499048DB4727477346C0450D455B44C1
:10297000A943F84248429841E8403A408C3FDE3E45
:10298000323E863DDA3C2F3C853BDB3A333A8A398E
:10299000E3383C389637F0364C36A8350435623487
:1029A000C0331F337E32DF314031A2300430682F14
:1029B000CC2E312E972DFD2C652CCD2B362BA02A1D
:1029C0000A2A7629E2284F28BD272C279B260C2689
:1029D0007D25F0246324D7234C23C2223822B02142
:1029E0002821A2201C20971F141F911E0F1E8E1D30
:1029F0000E1D8F1C111C941B171B9C1A221AA9193F
:102A00003019B9184318CE175917E616741603165D
:102A100092152315B5144814DC13711307139E1275
:102A20003612CF1169110511A1103E10DD0F7C0F78
:102A30001D0FBF0E620E060EAB0D510DF80CA10C52
:102A40004A0CF50BA00B4D0BFB0AAA0A5A0A0C0AFA
:102A5000BE0972092709DD0894084C080508C0075B
:102A60007B073807F606B50676063706FA05BE0573
:102A7000830549051105D904A3046E043A0407042B
:102A8000D603A603770349031C03F102C6029D0285
:102A900076024F022A020502E201C101A001810172
:102AA000630146012A011001F600DE00C800B200F1
:102AB0009E008B007900680059004B003E003200F8
:102AC00027001E0016000F000A0006000200010089
:102AD00000000100020006000A000F0016001E00A0
:102AE000270032003E004B005900680079008B003F
:102AF0009E00B200C800DE00F60010012A01460167
:102B000063018101A001C101E20105022A024F0215
:102B100076029D02C602F1021C0349037703A60355
:102B2000D60307043A046E04A304D9041105490529
:102B30008305BE05FA0537067606B506F60638079C
:102B40007B07C00705084C089408DD0827097209AF
:102B5000BE090C0A5A0AAA0AFB0A4D0BA00BF50B78
:102B60004A0CA10CF80C510DAB0D060E620EBF0EF7
:102B70001D0F7C0FDD0F3E10A11005116911CF1143
:102B800036129E1207137113DC134814B514231563
:102B9000921503167416E6165917CE174318B9186E
:102BA0003019A919221A9C1A171B941B111C8F1C6F
:102BB0000E1D8E1D0F1E911E141F971F1C20A2207C
:102BC0002821B0213822C2224C23D7236324F024A9
:102BD0007D250C269B262C27BD274F28E228762909
:102BE0000A2AA02A362BCD2B652CFD2C972D312EB1
:102BF000CC2E682F0430A2304031DF317E321F33BB
:102C0000C03362340435A8354C36F03696373C383C
:102C1000E3388A39333ADB3A853B2F3CDA3C863D50
:102C2000323EDE3E8C3F3A40E84098414842F8420E
:102C3000A9435B440D45C04573462747DB47904891
:102C40004649FC49B24A694B214CD94C914D4A4EF8
:102C5000044FBE4F78503351EF51AA52675323545B
:102C6000E0549E555C561A57D95798585859175AD8
:102C7000D85A985B595C1A5DDC5D9E5E605F23608C
:102C8000E660A9616C623063F463B8647D65426696
:102C90000767CC67926858691E6AE46AAA6B716C10
:102CA000386DFE6DC66E8D6F54701C71E471AC7220
:102CB00074733C740475CD7595765E772678EF78DD
:102CC000B879817A497B127CDB7CA47D6D7E367F6E
:042CD000AD0100084A
:042CD400890100086A
:102CD800FFFF03FD11FA27F746F46DF19DEED6EBE1
:102CE80016E95FE6B0E309E16ADED2DB43D9BBD679
:102CF8003AD4C1D150CFE6CC82CA26C8D2C584C343
:102D08003CC1FCBEC2BC90BA63B83DB61EB404B2A6
:102D1800F2AFE5ADDEABDEA9E3A7EEA5FFA316A2F1
:102D280033A0559E7D9CAA9ADD9815975295959348
:102D3800DD912A907C8ED38C2F8B9089F5876086C5
:102D4800CF844383BC813980BA7E407DCB7B597A5E
:102D5800ED7884771F76BF7463730B72B770676FF3
:102D68001A6ED26C8D6B4D6A1069D667A0666E6557
:102D780040641563ED61C960A95F8B5E715D5B5C42
:102D8800475B375A2A59205819571556155517545D
:102D98001C5324522F513D504E4F614E784D904C4C
:102DA800AC4BCA4AEB490F4935485E478946B64598
:102DB800E74419444E438542BF41FB403940793FBF
:102DC800BC3E013E483D913CDD3B2A3B7A3ACB393B
:102DD8001F397438CC3726378136DF353E359F3476
:102DE80002346733CE323632A1310D317A30EA2FD0
:102DF8005B2FCE2E422EB82D302DA92C242CA02BA3
:102E08001E2B9D2A1E2AA1292429AA283028B92741
:102E18004227CD265926E7257625062598242B24F2
:102E2800BF235423EB2283221C22B6215121EE20FA
:102E38008C202B20CB1F6C1F0E1FB21E561EFC1D94
:102E4800A21D4A1DF21C9C1C471CF21B9F1B4D1BFC
:102E5800FB1AAB1A5B1A0D1ABF1972192619DB185F
:102E6800911848180018B81771172B17E616A216EC
:102E78005E161C16DA15991558151815DA149B14D0
:102E88005E142114E513AA136F133513FC12C31231
:102E98008B1254121D12E711B2117D11491115112F
:102EA800E310B0107E104D101D10ED0FBD0F8E0FEA
:102EB800600F320F050FD80EAB0E800E540E2A0E7F
:102EC800FF0DD60DAC0D840D5B0D340D0C0DE50C0E
:102ED800BF0C990C730C4E0C290C050CE10BBE0BA6
:102EE8009B0B780B560B340B130BF20AD10AB10A61
:102EF800910A710A520A340A150AF709D909BC0954
:102F08009F09820966094A092E091309F808DD088C
:102F1800C208A8088F0875085C0843082A08120820
:102F2800FA07E207CB07B3079C0786076F0759071D
:102F380043072D0718070307EE06D906C506B1068D
:102F48009D068906760662064F063C062A0617067F
:102F58000506F305E205D005BF05AE059D058C0500
:102F68007B056B055B054B053B052B051C050D0516
:102F7800FE04EF04E004D204C304B504A7049904D2
:102F88008B047E0470046304560449043C04300432
:102F9800230417040B04FF03F303E703DB03D00345
:102FA800C403B903AE03A30398038E038303790311
:102FB8006E0364035A03500346033C033303290397
:102FC800200316030D030403FB02F202E902E102E7
:102FD800D802D002C702BF02B702AF02A7029F02FF
:102FE80097028F0288028002790271026A026302E4
:102FF8005C0255024E0247024002390233022C029B
:1030080026021F02190213020C0206020002FA012C
:10301800F401EF01E901E301DD01D801D201CD019D
:10302800C801C201BD01B801B301AE01A901A401E3
:103038009F019A01950190018C01870183017E010E
:103048007A01750171016D016801640160015C011B
:103058005801540150014C014801440141013D010E
:103068003901350132012E012B01270124012001EC
:103078001D011A011601130110010D010A010701B2
:1030880004010101FE00FB00F800F500F200EF006A
:10309800EC00EA00E700E400E200DF00DC00DA0010
:1030A800D700D500D200D000CD00CB00C900C600A3
:1030B800C400C200BF00BD00BB00B900B700B50026
:1030C800B200B000AE00AC00AA00A800A600A400A0
:1030D800A200A1009F009D009B0099009700960008
:1030E8009400920090008F008D008B008A00880069
:1030F800870085008400820081007F007E007C00BC
:103108007B00790078007600750074007200710009
:1031180070006E006D006C006B006900680067004D
:103128006600640063006200610060005F005E008A
:103138005D005B005A0059005800570056005500C2
:10314800540053005200510050004F004F004E00F1
:103158004D004C004B004A00490048004800470019
:10316800460045004400430043004200410040003F
:1031780040003F003E003D003D003C003B003B005E
:103188003A0039003900380037003700360035007A
:103198003500340034003300320032003100310091
:1031A80030002F002F002E002E002D002D002C00A7
:1031B8002C002B002B002A002A00290029002800B7
:1031C80028002700270026002600260025002500C5
:1031D80024002400230023002300220022002100D1
:1031E80021002100200020001F001F001F001E00DA
:1031F8001E001E001D001D001D001C001C001C00E0
:103208001B001B001B001A001A001A001A001900E4
:1032180019001900180018001800170017001700E7
:1032280017001600160016001600150015001500E8
:1032380015001400140014001400130013001300E8
:1032480013001300120012001200120012001100E5
:1032580011001100110011001000100010001000E2
:1032680010000F000F000F000F000F000F000E00DE
:103278000E000E000E000E000E000D000D000D00D9
:103288000D000D000D000C000C000C000C000C00D3
:103298000C000C000B000B000B000B000B000B00CC
:1032A8000B000B000A000A000A000A000A000A00C4
:1032B8000A000A000A0009000900090009000900BB
:1032C80009000900090009000800080008000800B2
:1032D80008000800080008000800080008000700A7
:1032E800070007000700070007000700070007009E
:1032F8000700070007000600060006000600060093
:103308000600060006000600060006000600060085
:10331800060005000500050005000500050005007C
:10332800050005000500050005000500050005006D
:103338000500050005000400040004000400040062
:103348000400040004000400040004000400040055
:103358000400040004000400040004000400040045
:10336800030003000300030003000300030003003D
:10337800030003000300030003000300030003002D
:10338800030003000300030003000300030003001D
:103398000300030003000300030002000200020010
:1033A8000200020002000200020002000200020005
:1033B80002000200020002000200020002000200F5
:1033C80002000200020002000200020002000200E5
:1033D80002000200020002000200020002000200D5
:1033E80002000200020002000200020002000200C5
:1033F80001000100010001000100010001000100BD
:1034080001000100010001000100010001000100AC
:10341800010001000100010001000100010001009C
:10342800010001000100010001000100010001008C
:10343800010001000100010001000100010001007C
:10344800010001000100010001000100010001006C
:10345800010001000100010001000100010001005C
:10346800010001000100010001000100010001004C
:10347800010001000100010001000100010001003C
:10348800010001000100010001000100010001002C
:10349800010001000100010001000100010001001C
:1034A800010001000100010001000100000000000E
:1034B8000000000000000000000000000000000004
:1034C80000000000000000000000000000000000F4
:0C34D80000127A0001000000100000004B
:040000050800149942
:00000001FF
